:080000000C9437000C94000081
:100008000C9400000C9400000C9400000C94000068
:100018000C9400000C9400000C9400000C94000058
:100028000C9400000C9400000C9400000C94000048
:100038000C9400000C9400000C9400000C94000038
:100048000C9400000C9400000C9400005757572E95
:100058004E414D494E49432E434F4D0080C002004A
:10006800600264000000F894EE27ECBBF1E0FBBFEF
:10007800EBBFE5BFF8E1F1BDE1BD8DE0A2E0BB2734
:10008800ED938A95E9F780E098E0A0E6ED93019773
:10009800E9F7E6E6F0E085919591009761F0A59182
:1000A800B59105901590BF01F00105900D9201974B
:1000B800E1F7FB01F0CFEFE5EDBFE8E0EEBFC0E60A
:1000C800D2E00C946700E0E0EBBBEABBE8BBE7BB1F
:1000D800E5BBE4BBE2BBE1BBA0E169D036D0E0E020
:1000E800EA93A0E025D0A4E5B0E04ED0FFCFFFCF43
:1000F800AA93E2B3EF70AE2FE881E07FEA2BE2BB70
:1001080085E08A95F1F7929A8DE08A95F1F79298B1
:100118008DE08A95F1F774C0AA93A881E9DFE88198
:10012800E295E883A881E4DF85E88A95F1F768C05D
:10013800AA93E881F0E0E05AFD4FE081A981AE0F73
:10014800EBDF5980488022960895A2E05BD0ACE0AE
:10015800E3DFA1E057D0E0E04E2E5E2E0895AA938B
:10016800A881AA3011F0571448F0E0E0EA934394CC
:10017800A42DDEDFA881AA3009F442C05394909AD6
:10018800A881CADF90983CC0BA93AA931A93E981D0
:10019800FA813196E983FA833197E4911E2FE03092
:1001A80019F0A12FDCDFF3CF188123960895AA93C5
:1001B800E1B3E06FE1BB8A9A889A899A92989098FD
:1001C80091987880E881E058E0936202E881E054F1
:1001D800E0936302A4E1B0E00E94120118D017D0A6
:1001E80016D0A0E285DF88EC90E00197F1F7A8E24D
:1001F80093DFA4E091DFA5E88FDFA6E08DDFA5DF20
:100208002196089589DFA3E0B0E00C941201A0E3E1
:100218006FDF88EC90E00197F1F70895109639F0B8
:1002280080ED97E00197F1F7A8951197C9F7089520
:00000001FF
